{
	"data": {
		"bytecode": {
			"linkReferences": {},
			"object": "608060405234801561001057600080fd5b5061012a806100206000396000f3fe6080604052348015600f57600080fd5b506004361060325760003560e01c8063034899bc146037578063755f3438146051575b600080fd5b603d606b565b6040516048919060af565b60405180910390f35b6057607a565b6040516062919060af565b60405180910390f35b60006319ff1d2160e01b905090565b60007f2949668b00000000000000000000000000000000000000000000000000000000905090565b60a98160c8565b82525050565b600060208201905060c2600083018460a2565b92915050565b60007fffffffff000000000000000000000000000000000000000000000000000000008216905091905056fea264697066735822122065e39281f1195ac337cd5da4b325346fa598a7c0f27bc85e0fe858b98a31903164736f6c63430008070033",
			"opcodes": "PUSH1 0x80 PUSH1 0x40 MSTORE CALLVALUE DUP1 ISZERO PUSH2 0x10 JUMPI PUSH1 0x0 DUP1 REVERT JUMPDEST POP PUSH2 0x12A DUP1 PUSH2 0x20 PUSH1 0x0 CODECOPY PUSH1 0x0 RETURN INVALID PUSH1 0x80 PUSH1 0x40 MSTORE CALLVALUE DUP1 ISZERO PUSH1 0xF JUMPI PUSH1 0x0 DUP1 REVERT JUMPDEST POP PUSH1 0x4 CALLDATASIZE LT PUSH1 0x32 JUMPI PUSH1 0x0 CALLDATALOAD PUSH1 0xE0 SHR DUP1 PUSH4 0x34899BC EQ PUSH1 0x37 JUMPI DUP1 PUSH4 0x755F3438 EQ PUSH1 0x51 JUMPI JUMPDEST PUSH1 0x0 DUP1 REVERT JUMPDEST PUSH1 0x3D PUSH1 0x6B JUMP JUMPDEST PUSH1 0x40 MLOAD PUSH1 0x48 SWAP2 SWAP1 PUSH1 0xAF JUMP JUMPDEST PUSH1 0x40 MLOAD DUP1 SWAP2 SUB SWAP1 RETURN JUMPDEST PUSH1 0x57 PUSH1 0x7A JUMP JUMPDEST PUSH1 0x40 MLOAD PUSH1 0x62 SWAP2 SWAP1 PUSH1 0xAF JUMP JUMPDEST PUSH1 0x40 MLOAD DUP1 SWAP2 SUB SWAP1 RETURN JUMPDEST PUSH1 0x0 PUSH4 0x19FF1D21 PUSH1 0xE0 SHL SWAP1 POP SWAP1 JUMP JUMPDEST PUSH1 0x0 PUSH32 0x2949668B00000000000000000000000000000000000000000000000000000000 SWAP1 POP SWAP1 JUMP JUMPDEST PUSH1 0xA9 DUP2 PUSH1 0xC8 JUMP JUMPDEST DUP3 MSTORE POP POP JUMP JUMPDEST PUSH1 0x0 PUSH1 0x20 DUP3 ADD SWAP1 POP PUSH1 0xC2 PUSH1 0x0 DUP4 ADD DUP5 PUSH1 0xA2 JUMP JUMPDEST SWAP3 SWAP2 POP POP JUMP JUMPDEST PUSH1 0x0 PUSH32 0xFFFFFFFF00000000000000000000000000000000000000000000000000000000 DUP3 AND SWAP1 POP SWAP2 SWAP1 POP JUMP INVALID LOG2 PUSH5 0x6970667358 0x22 SLT KECCAK256 PUSH6 0xE39281F1195A 0xC3 CALLDATACOPY 0xCD 0x5D LOG4 0xB3 0x25 CALLVALUE PUSH16 0xA598A7C0F27BC85E0FE858B98A319031 PUSH5 0x736F6C6343 STOP ADDMOD SMOD STOP CALLER "
		},
		"gasEstimates": {
			"creation": {
				"codeDepositCost": "59600",
				"executionCost": "111",
				"totalCost": "59711"
			},
			"external": {
				"getInterfaeId()": "343",
				"getSelector()": "327"
			}
		},
		"methodIdentifiers": {
			"getInterfaeId()": "755f3438",
			"getSelector()": "034899bc"
		}
	},
	"abi": [
		{
			"inputs": [],
			"name": "getInterfaeId",
			"outputs": [
				{
					"internalType": "bytes4",
					"name": "",
					"type": "bytes4"
				}
			],
			"stateMutability": "pure",
			"type": "function"
		},
		{
			"inputs": [],
			"name": "getSelector",
			"outputs": [
				{
					"internalType": "bytes4",
					"name": "",
					"type": "bytes4"
				}
			],
			"stateMutability": "pure",
			"type": "function"
		}
	]
}